{
  "contractName": "GameFactory",
  "abi": [
    {
      "inputs": [
        {
          "internalType": "address",
          "name": "_masterContract",
          "type": "address"
        }
      ],
      "stateMutability": "nonpayable",
      "type": "constructor"
    },
    {
      "anonymous": false,
      "inputs": [
        {
          "indexed": false,
          "internalType": "uint256",
          "name": "entryFee",
          "type": "uint256"
        }
      ],
      "name": "GameStarted",
      "type": "event"
    },
    {
      "anonymous": false,
      "inputs": [
        {
          "indexed": true,
          "internalType": "address",
          "name": "previousOwner",
          "type": "address"
        },
        {
          "indexed": true,
          "internalType": "address",
          "name": "newOwner",
          "type": "address"
        }
      ],
      "name": "OwnershipTransferred",
      "type": "event"
    },
    {
      "inputs": [],
      "name": "PublicGame",
      "outputs": [
        {
          "internalType": "address",
          "name": "",
          "type": "address"
        }
      ],
      "stateMutability": "view",
      "type": "function",
      "constant": true
    },
    {
      "inputs": [],
      "name": "entryFee",
      "outputs": [
        {
          "internalType": "uint256",
          "name": "",
          "type": "uint256"
        }
      ],
      "stateMutability": "view",
      "type": "function",
      "constant": true
    },
    {
      "inputs": [
        {
          "internalType": "uint256",
          "name": "",
          "type": "uint256"
        }
      ],
      "name": "games",
      "outputs": [
        {
          "internalType": "address",
          "name": "",
          "type": "address"
        }
      ],
      "stateMutability": "view",
      "type": "function",
      "constant": true
    },
    {
      "inputs": [],
      "name": "owner",
      "outputs": [
        {
          "internalType": "address",
          "name": "",
          "type": "address"
        }
      ],
      "stateMutability": "view",
      "type": "function",
      "constant": true
    },
    {
      "inputs": [],
      "name": "renounceOwnership",
      "outputs": [],
      "stateMutability": "nonpayable",
      "type": "function"
    },
    {
      "inputs": [],
      "name": "serviceFee",
      "outputs": [
        {
          "internalType": "uint256",
          "name": "",
          "type": "uint256"
        }
      ],
      "stateMutability": "view",
      "type": "function",
      "constant": true
    },
    {
      "inputs": [
        {
          "internalType": "address",
          "name": "newOwner",
          "type": "address"
        }
      ],
      "name": "transferOwnership",
      "outputs": [],
      "stateMutability": "nonpayable",
      "type": "function"
    },
    {
      "inputs": [
        {
          "internalType": "uint256",
          "name": "_entryFee",
          "type": "uint256"
        }
      ],
      "name": "createGame",
      "outputs": [],
      "stateMutability": "nonpayable",
      "type": "function"
    },
    {
      "inputs": [],
      "name": "getGames",
      "outputs": [
        {
          "internalType": "address[]",
          "name": "",
          "type": "address[]"
        }
      ],
      "stateMutability": "view",
      "type": "function",
      "constant": true
    },
    {
      "inputs": [
        {
          "internalType": "uint256",
          "name": "newServiceFee",
          "type": "uint256"
        }
      ],
      "name": "adjustServiceFee",
      "outputs": [],
      "stateMutability": "nonpayable",
      "type": "function"
    },
    {
      "inputs": [],
      "name": "startGame",
      "outputs": [],
      "stateMutability": "nonpayable",
      "type": "function"
    }
  ],
  "bytecode": "0x608060405273130b771b54ba4498f19ecbdda42bb6584493422f600260006101000a81548173ffffffffffffffffffffffffffffffffffffffff021916908373ffffffffffffffffffffffffffffffffffffffff16021790555034801561006557600080fd5b50604051610cdd380380610cdd833981810160405281019061008791906101cb565b6100a36100986100ea60201b60201c565b6100f260201b60201c565b80600260006101000a81548173ffffffffffffffffffffffffffffffffffffffff021916908373ffffffffffffffffffffffffffffffffffffffff1602179055505061023d565b600033905090565b60008060009054906101000a900473ffffffffffffffffffffffffffffffffffffffff169050816000806101000a81548173ffffffffffffffffffffffffffffffffffffffff021916908373ffffffffffffffffffffffffffffffffffffffff1602179055508173ffffffffffffffffffffffffffffffffffffffff168173ffffffffffffffffffffffffffffffffffffffff167f8be0079c531659141344cd1fd0a4f28419497f9722a3daafe3b4186f6b6457e060405160405180910390a35050565b6000815190506101c581610226565b92915050565b6000602082840312156101dd57600080fd5b60006101eb848285016101b6565b91505092915050565b60006101ff82610206565b9050919050565b600073ffffffffffffffffffffffffffffffffffffffff82169050919050565b61022f816101f4565b811461023a57600080fd5b50565b610a918061024c6000396000f3fe608060405234801561001057600080fd5b50600436106100a95760003560e01c80638abdf5aa116100715780638abdf5aa146101405780638da5cb5b1461015e57806395e63c1f1461017c578063c04c594714610198578063d65ab5f2146101b6578063f2fde38b146101c0576100a9565b8063072ea61c146100ae578063117a5b90146100cc57806348e837b9146100fc578063715018a61461011857806388d5b4ef14610122575b600080fd5b6100b66101dc565b6040516100c3919061098c565b60405180910390f35b6100e660048036038101906100e1919061079d565b6101e2565b6040516100f3919061090f565b60405180910390f35b6101166004803603810190610111919061079d565b610221565b005b6101206103ce565b005b61012a6103e2565b604051610137919061090f565b60405180910390f35b610148610408565b604051610155919061098c565b60405180910390f35b61016661040e565b604051610173919061090f565b60405180910390f35b6101966004803603810190610191919061079d565b610437565b005b6101a0610449565b6040516101ad919061092a565b60405180910390f35b6101be6104d7565b005b6101da60048036038101906101d59190610774565b610512565b005b60045481565b600181815481106101f257600080fd5b906000526020600020016000915054906101000a900473ffffffffffffffffffffffffffffffffffffffff1681565b600061024e600260009054906101000a900473ffffffffffffffffffffffffffffffffffffffff16610596565b90506001819080600181540180825580915050600190039060005260206000200160009091909190916101000a81548173ffffffffffffffffffffffffffffffffffffffff021916908373ffffffffffffffffffffffffffffffffffffffff1602179055508073ffffffffffffffffffffffffffffffffffffffff1663f2fde38b336040518263ffffffff1660e01b81526004016102ec919061090f565b600060405180830381600087803b15801561030657600080fd5b505af115801561031a573d6000803e3d6000fd5b505050508073ffffffffffffffffffffffffffffffffffffffff1663b7b0422d836040518263ffffffff1660e01b8152600401610357919061098c565b600060405180830381600087803b15801561037157600080fd5b505af1158015610385573d6000803e3d6000fd5b5050505080600560006101000a81548173ffffffffffffffffffffffffffffffffffffffff021916908373ffffffffffffffffffffffffffffffffffffffff1602179055505050565b6103d6610600565b6103e0600061067e565b565b600560009054906101000a900473ffffffffffffffffffffffffffffffffffffffff1681565b60035481565b60008060009054906101000a900473ffffffffffffffffffffffffffffffffffffffff16905090565b61043f610600565b8060038190555050565b606060018054806020026020016040519081016040528092919081815260200182805480156104cd57602002820191906000526020600020905b8160009054906101000a900473ffffffffffffffffffffffffffffffffffffffff1673ffffffffffffffffffffffffffffffffffffffff1681526020019060010190808311610483575b5050505050905090565b7f50ad08f58a27f2851d7e3a1b3a6a46b290f2ce677e99642d30ff639721e77790600454604051610508919061098c565b60405180910390a1565b61051a610600565b600073ffffffffffffffffffffffffffffffffffffffff168173ffffffffffffffffffffffffffffffffffffffff16141561058a576040517f08c379a00000000000000000000000000000000000000000000000000000000081526004016105819061094c565b60405180910390fd5b6105938161067e565b50565b6000808260601b90506040517f3d602d80600a3d3981f3363d3d373d3d3d363d7300000000000000000000000081528160148201527f5af43d82803e903d91602b57fd5bf3000000000000000000000000000000000060288201526037816000f092505050919050565b610608610742565b73ffffffffffffffffffffffffffffffffffffffff1661062661040e565b73ffffffffffffffffffffffffffffffffffffffff161461067c576040517f08c379a00000000000000000000000000000000000000000000000000000000081526004016106739061096c565b60405180910390fd5b565b60008060009054906101000a900473ffffffffffffffffffffffffffffffffffffffff169050816000806101000a81548173ffffffffffffffffffffffffffffffffffffffff021916908373ffffffffffffffffffffffffffffffffffffffff1602179055508173ffffffffffffffffffffffffffffffffffffffff168173ffffffffffffffffffffffffffffffffffffffff167f8be0079c531659141344cd1fd0a4f28419497f9722a3daafe3b4186f6b6457e060405160405180910390a35050565b600033905090565b60008135905061075981610a2d565b92915050565b60008135905061076e81610a44565b92915050565b60006020828403121561078657600080fd5b60006107948482850161074a565b91505092915050565b6000602082840312156107af57600080fd5b60006107bd8482850161075f565b91505092915050565b60006107d283836107de565b60208301905092915050565b6107e7816109f1565b82525050565b6107f6816109f1565b82525050565b6000610807826109b7565b61081181856109cf565b935061081c836109a7565b8060005b8381101561084d57815161083488826107c6565b975061083f836109c2565b925050600181019050610820565b5085935050505092915050565b60006108676026836109e0565b91507f4f776e61626c653a206e6577206f776e657220697320746865207a65726f206160008301527f64647265737300000000000000000000000000000000000000000000000000006020830152604082019050919050565b60006108cd6020836109e0565b91507f4f776e61626c653a2063616c6c6572206973206e6f7420746865206f776e65726000830152602082019050919050565b61090981610a23565b82525050565b600060208201905061092460008301846107ed565b92915050565b6000602082019050818103600083015261094481846107fc565b905092915050565b600060208201905081810360008301526109658161085a565b9050919050565b60006020820190508181036000830152610985816108c0565b9050919050565b60006020820190506109a16000830184610900565b92915050565b6000819050602082019050919050565b600081519050919050565b6000602082019050919050565b600082825260208201905092915050565b600082825260208201905092915050565b60006109fc82610a03565b9050919050565b600073ffffffffffffffffffffffffffffffffffffffff82169050919050565b6000819050919050565b610a36816109f1565b8114610a4157600080fd5b50565b610a4d81610a23565b8114610a5857600080fd5b5056fea2646970667358221220eb0f8cc8d2056345dad7dcd2cce285ebdab2c7f32d1fb990f6aa239dcdbd33d164736f6c63430008000033",
  "immutableReferences": {},
  "source": "// SPDX-License-Identifier: MIT\r\npragma solidity ^0.8.0;\r\n\r\n//import des Games\r\nimport \"./Game.sol\";\r\n//import der Funktionen fr das Factory-Pattern: Erstellung von Proxy-Contracts\r\nimport \"./CloneFactory.sol\";\r\n\r\nimport \"./Ownable.sol\";\r\n\r\n\r\ncontract GameFactory is CloneFactory, Ownable {\r\n    //Bestimmung des Eigentmers                 \r\n    //address private owner;\r\n    // Adresse aller Spiele\r\n    address[] public games;  \r\n    //mapping der Adressen an die Eintrittsgebhren/Wettgebhren\r\n    //mapping(entryFee => address) aMapping;\r\n    //Adresse des Master-Contracts, Grundlage fr die Proxys\r\n    address masterContract = 0x130B771b54BA4498F19ecBddA42Bb6584493422F; \r\n    //Servicefee mit bestimmten Betrag\r\n    uint public serviceFee; \r\n    //Eintrittsgebhren und gleichzeitg Wetteinsatz \r\n    uint public entryFee;\r\n    //Event zum starten eines neuen Proxy-Contracts des Spiels\r\n    event GameStarted(uint entryFee);\r\n    //Adresse des ffentlich Spiels\r\n    address public PublicGame;\r\n\r\n\r\n\r\n    //Adresse des deployten Game-Contract wird manuell bergeben\r\n    constructor(address _masterContract) public{\r\n        //setzen des Contract-Besitzers\r\n        //owner = msg.sender;\r\n        //Adresse des Base-Contcrats in die globale Variable masterContract\r\n        masterContract = _masterContract;\r\n    }\r\n\r\n\r\n    //Funktion zum Erstellen des Spiels\r\n    function createGame(uint _entryFee) public {\r\n        //Zugriff auf den Base-Contract und Erstellung eines Clones des Spiels\r\n        Game game = Game(createClone(masterContract));\r\n        // Initialisieren des Spiels, (noch zu Bearbeiten), bergabe von entryFee und ServiceFee (wenn nicht Hardgecoded)\r\n        games.push(address(game));\r\n        game.transferOwnership(msg.sender);\r\n        game.init(_entryFee);\r\n        PublicGame = address(game);\r\n    }\r\n\r\n\r\n    //Anzeigen aller existierenden Spiele\r\n    function getGames() public view returns (address[] memory) {\r\n        return games;\r\n    }\r\n\r\n    //Anpassung der Servicegebhr\r\n    function adjustServiceFee(uint256 newServiceFee) public onlyOwner {\r\n        serviceFee = newServiceFee;\r\n    }\r\n    \r\n    //Funktion um Spiel zu starten\r\n    function startGame() public{\r\n        emit GameStarted(entryFee);\r\n    }\r\n\r\n}",
  "sourcePath": "C:\\Users\\elebe\\OneDrive\\Desktop\\HSMW-Stoff\\2_Semester\\Blockchain_3\\spiel-app\\spiel\\contracts\\GameFactory.sol",
  "compiler": {
    "name": "solc",
    "version": "0.8.0+commit.c7dfd78e.Emscripten.clang"
  },
  "schemaVersion": "3.4.13",
  "updatedAt": "2023-04-18T08:52:01.695Z",
  "networkType": "ethereum",
  "devdoc": {
    "kind": "dev",
    "methods": {
      "owner()": {
        "details": "Returns the address of the current owner."
      },
      "renounceOwnership()": {
        "details": "Leaves the contract without owner. It will not be possible to call `onlyOwner` functions. Can only be called by the current owner. NOTE: Renouncing ownership will leave the contract without an owner, thereby disabling any functionality that is only available to the owner."
      },
      "transferOwnership(address)": {
        "details": "Transfers ownership of the contract to a new account (`newOwner`). Can only be called by the current owner."
      }
    },
    "version": 1
  },
  "userdoc": {
    "kind": "user",
    "methods": {},
    "version": 1
  }
}