{
  "contractName": "Game",
  "abi": [
    {
      "anonymous": false,
      "inputs": [
        {
          "indexed": false,
          "internalType": "uint256",
          "name": "winningNumber",
          "type": "uint256"
        },
        {
          "indexed": false,
          "internalType": "uint256",
          "name": "prizePool",
          "type": "uint256"
        }
      ],
      "name": "GameEnded",
      "type": "event"
    },
    {
      "anonymous": false,
      "inputs": [
        {
          "indexed": true,
          "internalType": "address",
          "name": "previousOwner",
          "type": "address"
        },
        {
          "indexed": true,
          "internalType": "address",
          "name": "newOwner",
          "type": "address"
        }
      ],
      "name": "OwnershipTransferred",
      "type": "event"
    },
    {
      "anonymous": false,
      "inputs": [
        {
          "indexed": false,
          "internalType": "address",
          "name": "player",
          "type": "address"
        },
        {
          "indexed": false,
          "internalType": "uint256",
          "name": "number",
          "type": "uint256"
        }
      ],
      "name": "PlayerJoined",
      "type": "event"
    },
    {
      "anonymous": false,
      "inputs": [
        {
          "indexed": false,
          "internalType": "address",
          "name": "player",
          "type": "address"
        },
        {
          "indexed": false,
          "internalType": "uint256",
          "name": "amount",
          "type": "uint256"
        }
      ],
      "name": "PlayerWithdrawn",
      "type": "event"
    },
    {
      "anonymous": false,
      "inputs": [
        {
          "indexed": false,
          "internalType": "address",
          "name": "winner",
          "type": "address"
        },
        {
          "indexed": false,
          "internalType": "uint256",
          "name": "prize",
          "type": "uint256"
        }
      ],
      "name": "WinnerSelected",
      "type": "event"
    },
    {
      "inputs": [],
      "name": "hasWinner",
      "outputs": [
        {
          "internalType": "bool",
          "name": "",
          "type": "bool"
        }
      ],
      "stateMutability": "view",
      "type": "function",
      "constant": true
    },
    {
      "inputs": [],
      "name": "owner",
      "outputs": [
        {
          "internalType": "address",
          "name": "",
          "type": "address"
        }
      ],
      "stateMutability": "view",
      "type": "function",
      "constant": true
    },
    {
      "inputs": [
        {
          "internalType": "uint256",
          "name": "",
          "type": "uint256"
        }
      ],
      "name": "players",
      "outputs": [
        {
          "internalType": "uint256",
          "name": "number",
          "type": "uint256"
        },
        {
          "internalType": "bool",
          "name": "hasPlayed",
          "type": "bool"
        },
        {
          "internalType": "bool",
          "name": "hasWithdrawn",
          "type": "bool"
        },
        {
          "internalType": "address payable",
          "name": "addr",
          "type": "address"
        }
      ],
      "stateMutability": "view",
      "type": "function",
      "constant": true
    },
    {
      "inputs": [],
      "name": "prizePool",
      "outputs": [
        {
          "internalType": "uint256",
          "name": "",
          "type": "uint256"
        }
      ],
      "stateMutability": "view",
      "type": "function",
      "constant": true
    },
    {
      "inputs": [],
      "name": "renounceOwnership",
      "outputs": [],
      "stateMutability": "nonpayable",
      "type": "function"
    },
    {
      "inputs": [
        {
          "internalType": "address",
          "name": "newOwner",
          "type": "address"
        }
      ],
      "name": "transferOwnership",
      "outputs": [],
      "stateMutability": "nonpayable",
      "type": "function"
    },
    {
      "inputs": [],
      "name": "winningNumber",
      "outputs": [
        {
          "internalType": "uint256",
          "name": "",
          "type": "uint256"
        }
      ],
      "stateMutability": "view",
      "type": "function",
      "constant": true
    },
    {
      "inputs": [
        {
          "internalType": "uint256",
          "name": "_entryFee",
          "type": "uint256"
        }
      ],
      "name": "init",
      "outputs": [],
      "stateMutability": "nonpayable",
      "type": "function"
    },
    {
      "inputs": [
        {
          "internalType": "uint256",
          "name": "number",
          "type": "uint256"
        },
        {
          "internalType": "uint256",
          "name": "value",
          "type": "uint256"
        }
      ],
      "name": "play",
      "outputs": [],
      "stateMutability": "payable",
      "type": "function",
      "payable": true
    },
    {
      "inputs": [],
      "name": "endGame",
      "outputs": [],
      "stateMutability": "nonpayable",
      "type": "function"
    },
    {
      "inputs": [],
      "name": "withdraw",
      "outputs": [],
      "stateMutability": "nonpayable",
      "type": "function"
    },
    {
      "inputs": [],
      "name": "cancelGame",
      "outputs": [],
      "stateMutability": "nonpayable",
      "type": "function"
    },
    {
      "inputs": [],
      "name": "getPlayers",
      "outputs": [
        {
          "components": [
            {
              "internalType": "uint256",
              "name": "number",
              "type": "uint256"
            },
            {
              "internalType": "bool",
              "name": "hasPlayed",
              "type": "bool"
            },
            {
              "internalType": "bool",
              "name": "hasWithdrawn",
              "type": "bool"
            },
            {
              "internalType": "address payable",
              "name": "addr",
              "type": "address"
            }
          ],
          "internalType": "struct Game.Player[]",
          "name": "",
          "type": "tuple[]"
        }
      ],
      "stateMutability": "view",
      "type": "function",
      "constant": true
    },
    {
      "inputs": [],
      "name": "getPrizePool",
      "outputs": [
        {
          "internalType": "uint256",
          "name": "",
          "type": "uint256"
        }
      ],
      "stateMutability": "view",
      "type": "function",
      "constant": true
    },
    {
      "inputs": [],
      "name": "getServiceFee",
      "outputs": [
        {
          "internalType": "uint256",
          "name": "",
          "type": "uint256"
        }
      ],
      "stateMutability": "view",
      "type": "function",
      "constant": true
    }
  ],
  "bytecode": "0x60806040523480156200001157600080fd5b5062000032620000266200003860201b60201c565b6200004060201b60201c565b62000104565b600033905090565b60008060009054906101000a900473ffffffffffffffffffffffffffffffffffffffff169050816000806101000a81548173ffffffffffffffffffffffffffffffffffffffff021916908373ffffffffffffffffffffffffffffffffffffffff1602179055508173ffffffffffffffffffffffffffffffffffffffff168173ffffffffffffffffffffffffffffffffffffffff167f8be0079c531659141344cd1fd0a4f28419497f9722a3daafe3b4186f6b6457e060405160405180910390a35050565b6125db80620001146000396000f3fe6080604052600436106100e85760003560e01c8063884bf67c1161008a578063b7b0422d11610059578063b7b0422d1461027b578063d84c1ac9146102a4578063f2fde38b146102bb578063f71d96cb146102e4576100e8565b8063884bf67c146101cf5780638b5b9ccc146101fa5780638da5cb5b146102255780639755a71014610250576100e8565b80636cbc2ded116100c65780636cbc2ded1461015a578063715018a614610171578063719ce73e146101885780637bc49a95146101b3576100e8565b806311a1933c146100ed5780633ccfd60b146101185780634664611e1461012f575b600080fd5b3480156100f957600080fd5b50610102610324565b60405161010f919061221d565b60405180910390f35b34801561012457600080fd5b5061012d61032e565b005b34801561013b57600080fd5b506101446109f2565b604051610151919061221d565b60405180910390f35b34801561016657600080fd5b5061016f6109f8565b005b34801561017d57600080fd5b50610186610e7c565b005b34801561019457600080fd5b5061019d610e90565b6040516101aa919061221d565b60405180910390f35b6101cd60048036038101906101c89190611d4e565b610e96565b005b3480156101db57600080fd5b506101e46110d1565b6040516101f1919061221d565b60405180910390f35b34801561020657600080fd5b5061020f6110db565b60405161021c9190612140565b60405180910390f35b34801561023157600080fd5b5061023a6111d0565b60405161024791906120d3565b60405180910390f35b34801561025c57600080fd5b506102656111f9565b6040516102729190612162565b60405180910390f35b34801561028757600080fd5b506102a2600480360381019061029d9190611d25565b61120c565b005b3480156102b057600080fd5b506102b9611216565b005b3480156102c757600080fd5b506102e260048036038101906102dd9190611cfc565b611526565b005b3480156102f057600080fd5b5061030b60048036038101906103069190611d25565b6115aa565b60405161031b9493929190612238565b60405180910390f35b6000600654905090565b60005b6001805490508110156106d65760018181548110610378577f4e487b7100000000000000000000000000000000000000000000000000000000600052603260045260246000fd5b906000526020600020906002020160010160009054906101000a900460ff1680156103f95750600181815481106103d8577f4e487b7100000000000000000000000000000000000000000000000000000000600052603260045260246000fd5b906000526020600020906002020160010160019054906101000a900460ff16155b801561049c57503373ffffffffffffffffffffffffffffffffffffffff1660018281548110610451577f4e487b7100000000000000000000000000000000000000000000000000000000600052603260045260246000fd5b906000526020600020906002020160010160029054906101000a900473ffffffffffffffffffffffffffffffffffffffff1673ffffffffffffffffffffffffffffffffffffffff1614155b156106c3576000600182815481106104dd577f4e487b7100000000000000000000000000000000000000000000000000000000600052603260045260246000fd5b906000526020600020906002020160010160006101000a81548160ff0219169083151502179055506001808281548110610540577f4e487b7100000000000000000000000000000000000000000000000000000000600052603260045260246000fd5b906000526020600020906002020160010160016101000a81548160ff021916908315150217905550600181815481106105a2577f4e487b7100000000000000000000000000000000000000000000000000000000600052603260045260246000fd5b906000526020600020906002020160010160029054906101000a900473ffffffffffffffffffffffffffffffffffffffff1673ffffffffffffffffffffffffffffffffffffffff166108fc6004549081150290604051600060405180830381858888f1935050505015801561061b573d6000803e3d6000fd5b507ff207283efc9ea9cb4dadbeb3af734e4ddc73b287aa6e77f8a9fb89f54fcf422f60018281548110610677577f4e487b7100000000000000000000000000000000000000000000000000000000600052603260045260246000fd5b906000526020600020906002020160010160029054906101000a900473ffffffffffffffffffffffffffffffffffffffff166004546040516106ba9291906120ee565b60405180910390a15b80806106ce90612495565b915050610331565b5060005b6001805490508110156109ef5760018181548110610721577f4e487b7100000000000000000000000000000000000000000000000000000000600052603260045260246000fd5b906000526020600020906002020160010160009054906101000a900460ff1680156107a2575060018181548110610781577f4e487b7100000000000000000000000000000000000000000000000000000000600052603260045260246000fd5b906000526020600020906002020160010160019054906101000a900460ff16155b801561084457503373ffffffffffffffffffffffffffffffffffffffff16600182815481106107fa577f4e487b7100000000000000000000000000000000000000000000000000000000600052603260045260246000fd5b906000526020600020906002020160010160029054906101000a900473ffffffffffffffffffffffffffffffffffffffff1673ffffffffffffffffffffffffffffffffffffffff16145b156109dc57600060018281548110610885577f4e487b7100000000000000000000000000000000000000000000000000000000600052603260045260246000fd5b906000526020600020906002020160010160006101000a81548160ff02191690831515021790555060018082815481106108e8577f4e487b7100000000000000000000000000000000000000000000000000000000600052603260045260246000fd5b906000526020600020906002020160010160016101000a81548160ff0219169083151502179055503373ffffffffffffffffffffffffffffffffffffffff166108fc60026005546109399190612346565b60045461094691906122f0565b9081150290604051600060405180830381858888f19350505050158015610971573d6000803e3d6000fd5b507ff207283efc9ea9cb4dadbeb3af734e4ddc73b287aa6e77f8a9fb89f54fcf422f3360026005546109a39190612346565b6004546109b091906122f0565b6040516109be929190612117565b60405180910390a160026005546109d59190612346565b6005819055505b80806109e790612495565b9150506106da565b50565b60025481565b60006001600281548110610a35577f4e487b7100000000000000000000000000000000000000000000000000000000600052603260045260246000fd5b90600052602060002090600202016000015460018081548110610a81577f4e487b7100000000000000000000000000000000000000000000000000000000600052603260045260246000fd5b9060005260206000209060020201600001546001600081548110610ace577f4e487b7100000000000000000000000000000000000000000000000000000000600052603260045260246000fd5b906000526020600020906002020160000154610aea91906122f0565b610af491906122f0565b90506000600382610b059190612346565b905060006003826002610b189190612377565b610b229190612346565b90506000806103e8905060005b600180549050811015610d8a5760008460018381548110610b79577f4e487b7100000000000000000000000000000000000000000000000000000000600052603260045260246000fd5b90600052602060002090600202016000015411610bec5760018281548110610bca577f4e487b7100000000000000000000000000000000000000000000000000000000600052603260045260246000fd5b90600052602060002090600202016000015485610be791906123d1565b610c44565b8460018381548110610c27577f4e487b7100000000000000000000000000000000000000000000000000000000600052603260045260246000fd5b906000526020600020906002020160000154610c4391906123d1565b5b905082811015610ca45760018281548110610c88577f4e487b7100000000000000000000000000000000000000000000000000000000600052603260045260246000fd5b9060005260206000209060020201600001549350809250610d76565b8281148015610cfd57508360018381548110610ce9577f4e487b7100000000000000000000000000000000000000000000000000000000600052603260045260246000fd5b906000526020600020906002020160000154145b15610d75576001600360006101000a81548160ff021916908315150217905550836002819055507f4c4660db760944215f41e957066d756ad5fd0eed1b4640632322eb06f77b034d600254600554604051610d5992919061227d565b60405180910390a1610d69611624565b50505050505050610e7a565b5b508080610d8290612495565b915050610b2f565b5060005b600180549050811015610e73578260018281548110610dd6577f4e487b7100000000000000000000000000000000000000000000000000000000600052603260045260246000fd5b9060005260206000209060020201600001541415610e60576001600360006101000a81548160ff021916908315150217905550826002819055507f4c4660db760944215f41e957066d756ad5fd0eed1b4640632322eb06f77b034d600254600554604051610e4592919061227d565b60405180910390a1610e55611624565b505050505050610e7a565b8080610e6b90612495565b915050610d8e565b5050505050505b565b610e84611b41565b610e8e6000611bbf565b565b60055481565b60008210158015610ea957506103e88211155b610ee8576040517f08c379a0000000000000000000000000000000000000000000000000000000008152600401610edf906121bd565b60405180910390fd5b600360018054905010610f30576040517f08c379a0000000000000000000000000000000000000000000000000000000008152600401610f279061217d565b60405180910390fd5b600360009054906101000a900460ff1615610f80576040517f08c379a0000000000000000000000000000000000000000000000000000000008152600401610f77906121fd565b60405180910390fd5b600160405180608001604052808481526020016001151581526020016000151581526020013373ffffffffffffffffffffffffffffffffffffffff1681525090806001815401808255809150506001900390600052602060002090600202016000909190919091506000820151816000015560208201518160010160006101000a81548160ff02191690831515021790555060408201518160010160016101000a81548160ff02191690831515021790555060608201518160010160026101000a81548173ffffffffffffffffffffffffffffffffffffffff021916908373ffffffffffffffffffffffffffffffffffffffff1602179055505050806005600082825461108d91906122f0565b925050819055507f3330a6773675f31f62070870f40379f8c6d42e3761410011a4dfc42b18043d2f33836040516110c5929190612117565b60405180910390a15050565b6000600554905090565b60606001805480602002602001604051908101604052809291908181526020016000905b828210156111c75783829060005260206000209060020201604051806080016040529081600082015481526020016001820160009054906101000a900460ff161515151581526020016001820160019054906101000a900460ff161515151581526020016001820160029054906101000a900473ffffffffffffffffffffffffffffffffffffffff1673ffffffffffffffffffffffffffffffffffffffff1673ffffffffffffffffffffffffffffffffffffffff1681525050815260200190600101906110ff565b50505050905090565b60008060009054906101000a900473ffffffffffffffffffffffffffffffffffffffff16905090565b600360009054906101000a900460ff1681565b8060048190555050565b61121e611b41565b60005b6001805490508110156115235760018181548110611268577f4e487b7100000000000000000000000000000000000000000000000000000000600052603260045260246000fd5b906000526020600020906002020160010160009054906101000a900460ff1680156112e95750600181815481106112c8577f4e487b7100000000000000000000000000000000000000000000000000000000600052603260045260246000fd5b906000526020600020906002020160010160019054906101000a900460ff16155b156115105760006001828154811061132a577f4e487b7100000000000000000000000000000000000000000000000000000000600052603260045260246000fd5b906000526020600020906002020160010160006101000a81548160ff021916908315150217905550600180828154811061138d577f4e487b7100000000000000000000000000000000000000000000000000000000600052603260045260246000fd5b906000526020600020906002020160010160016101000a81548160ff021916908315150217905550600181815481106113ef577f4e487b7100000000000000000000000000000000000000000000000000000000600052603260045260246000fd5b906000526020600020906002020160010160029054906101000a900473ffffffffffffffffffffffffffffffffffffffff1673ffffffffffffffffffffffffffffffffffffffff166108fc6004549081150290604051600060405180830381858888f19350505050158015611468573d6000803e3d6000fd5b507ff207283efc9ea9cb4dadbeb3af734e4ddc73b287aa6e77f8a9fb89f54fcf422f600182815481106114c4577f4e487b7100000000000000000000000000000000000000000000000000000000600052603260045260246000fd5b906000526020600020906002020160010160029054906101000a900473ffffffffffffffffffffffffffffffffffffffff166004546040516115079291906120ee565b60405180910390a15b808061151b90612495565b915050611221565b50565b61152e611b41565b600073ffffffffffffffffffffffffffffffffffffffff168173ffffffffffffffffffffffffffffffffffffffff16141561159e576040517f08c379a00000000000000000000000000000000000000000000000000000000081526004016115959061219d565b60405180910390fd5b6115a781611bbf565b50565b600181815481106115ba57600080fd5b90600052602060002090600202016000915090508060000154908060010160009054906101000a900460ff16908060010160019054906101000a900460ff16908060010160029054906101000a900473ffffffffffffffffffffffffffffffffffffffff16905084565b6000805b6001805490508110156116ac5760025460018281548110611672577f4e487b7100000000000000000000000000000000000000000000000000000000600052603260045260246000fd5b906000526020600020906002020160000154141561169957818061169590612495565b9250505b80806116a490612495565b915050611628565b5060018114156118e857600080600090505b6001805490508110156118915760025460018281548110611708577f4e487b7100000000000000000000000000000000000000000000000000000000600052603260045260246000fd5b906000526020600020906002020160000154141561187e576001818154811061175a577f4e487b7100000000000000000000000000000000000000000000000000000000600052603260045260246000fd5b906000526020600020906002020160010160029054906101000a900473ffffffffffffffffffffffffffffffffffffffff1691508173ffffffffffffffffffffffffffffffffffffffff166108fc6005549081150290604051600060405180830381858888f193505050501580156117d6573d6000803e3d6000fd5b507f75060f9e79552df167b73353fee6237a75bb5ba8ea022f77224e32f152138bcb60018281548110611832577f4e487b7100000000000000000000000000000000000000000000000000000000600052603260045260246000fd5b906000526020600020906002020160010160029054906101000a900473ffffffffffffffffffffffffffffffffffffffff166005546040516118759291906120ee565b60405180910390a15b808061188990612495565b9150506116be565b5061189a6111d0565b73ffffffffffffffffffffffffffffffffffffffff166108fc6006549081150290604051600060405180830381858888f193505050501580156118e1573d6000803e3d6000fd5b5050611b3e565b60006118f382611c83565b90506000805b600180549050811015611aea5760025460018281548110611943577f4e487b7100000000000000000000000000000000000000000000000000000000600052603260045260246000fd5b9060005260206000209060020201600001541415611ad75782821415611ac85760006001828154811061199f577f4e487b7100000000000000000000000000000000000000000000000000000000600052603260045260246000fd5b906000526020600020906002020160010160029054906101000a900473ffffffffffffffffffffffffffffffffffffffff1690508073ffffffffffffffffffffffffffffffffffffffff166108fc6005549081150290604051600060405180830381858888f19350505050158015611a1b573d6000803e3d6000fd5b507f75060f9e79552df167b73353fee6237a75bb5ba8ea022f77224e32f152138bcb60018381548110611a77577f4e487b7100000000000000000000000000000000000000000000000000000000600052603260045260246000fd5b906000526020600020906002020160010160029054906101000a900473ffffffffffffffffffffffffffffffffffffffff16600554604051611aba9291906120ee565b60405180910390a150611aea565b8180611ad390612495565b9250505b8080611ae290612495565b9150506118f9565b50611af36111d0565b73ffffffffffffffffffffffffffffffffffffffff166108fc6006549081150290604051600060405180830381858888f19350505050158015611b3a573d6000803e3d6000fd5b5050505b50565b611b49611cca565b73ffffffffffffffffffffffffffffffffffffffff16611b676111d0565b73ffffffffffffffffffffffffffffffffffffffff1614611bbd576040517f08c379a0000000000000000000000000000000000000000000000000000000008152600401611bb4906121dd565b60405180910390fd5b565b60008060009054906101000a900473ffffffffffffffffffffffffffffffffffffffff169050816000806101000a81548173ffffffffffffffffffffffffffffffffffffffff021916908373ffffffffffffffffffffffffffffffffffffffff1602179055508173ffffffffffffffffffffffffffffffffffffffff168173ffffffffffffffffffffffffffffffffffffffff167f8be0079c531659141344cd1fd0a4f28419497f9722a3daafe3b4186f6b6457e060405160405180910390a35050565b6000814244600180549050604051602001611ca093929190612096565b6040516020818303038152906040528051906020012060001c611cc391906124e8565b9050919050565b600033905090565b600081359050611ce181612577565b92915050565b600081359050611cf68161258e565b92915050565b600060208284031215611d0e57600080fd5b6000611d1c84828501611cd2565b91505092915050565b600060208284031215611d3757600080fd5b6000611d4584828501611ce7565b91505092915050565b60008060408385031215611d6157600080fd5b6000611d6f85828601611ce7565b9250506020611d8085828601611ce7565b9150509250929050565b6000611d96838361200c565b60808301905092915050565b611dab8161245f565b82525050565b611dba81612417565b82525050565b611dc981612417565b82525050565b611dd881612405565b82525050565b6000611de9826122b6565b611df381856122ce565b9350611dfe836122a6565b8060005b83811015611e2f578151611e168882611d8a565b9750611e21836122c1565b925050600181019050611e02565b5085935050505092915050565b611e4581612429565b82525050565b611e5481612429565b82525050565b6000611e676022836122df565b91507f4d6178696d756d206e756d626572206f6620706c61796572732072656163686560008301527f642e0000000000000000000000000000000000000000000000000000000000006020830152604082019050919050565b6000611ecd6026836122df565b91507f4f776e61626c653a206e6577206f776e657220697320746865207a65726f206160008301527f64647265737300000000000000000000000000000000000000000000000000006020830152604082019050919050565b6000611f336022836122df565b91507f4e756d626572206d757374206265206265747765656e203020616e642031303060008301527f302e0000000000000000000000000000000000000000000000000000000000006020830152604082019050919050565b6000611f996020836122df565b91507f4f776e61626c653a2063616c6c6572206973206e6f7420746865206f776e65726000830152602082019050919050565b6000611fd96015836122df565b91507f47616d6520697320616c7265616479206f7665722e00000000000000000000006000830152602082019050919050565b6080820160008201516120226000850182612061565b5060208201516120356020850182611e3c565b5060408201516120486040850182611e3c565b50606082015161205b6060850182611db1565b50505050565b61206a81612455565b82525050565b61207981612455565b82525050565b61209061208b82612455565b6124de565b82525050565b60006120a2828661207f565b6020820191506120b2828561207f565b6020820191506120c2828461207f565b602082019150819050949350505050565b60006020820190506120e86000830184611dcf565b92915050565b60006040820190506121036000830185611da2565b6121106020830184612070565b9392505050565b600060408201905061212c6000830185611dcf565b6121396020830184612070565b9392505050565b6000602082019050818103600083015261215a8184611dde565b905092915050565b60006020820190506121776000830184611e4b565b92915050565b6000602082019050818103600083015261219681611e5a565b9050919050565b600060208201905081810360008301526121b681611ec0565b9050919050565b600060208201905081810360008301526121d681611f26565b9050919050565b600060208201905081810360008301526121f681611f8c565b9050919050565b6000602082019050818103600083015261221681611fcc565b9050919050565b60006020820190506122326000830184612070565b92915050565b600060808201905061224d6000830187612070565b61225a6020830186611e4b565b6122676040830185611e4b565b6122746060830184611dc0565b95945050505050565b60006040820190506122926000830185612070565b61229f6020830184612070565b9392505050565b6000819050602082019050919050565b600081519050919050565b6000602082019050919050565b600082825260208201905092915050565b600082825260208201905092915050565b60006122fb82612455565b915061230683612455565b9250827fffffffffffffffffffffffffffffffffffffffffffffffffffffffffffffffff0382111561233b5761233a612519565b5b828201905092915050565b600061235182612455565b915061235c83612455565b92508261236c5761236b612548565b5b828204905092915050565b600061238282612455565b915061238d83612455565b9250817fffffffffffffffffffffffffffffffffffffffffffffffffffffffffffffffff04831182151516156123c6576123c5612519565b5b828202905092915050565b60006123dc82612455565b91506123e783612455565b9250828210156123fa576123f9612519565b5b828203905092915050565b600061241082612435565b9050919050565b600061242282612435565b9050919050565b60008115159050919050565b600073ffffffffffffffffffffffffffffffffffffffff82169050919050565b6000819050919050565b600061246a82612471565b9050919050565b600061247c82612483565b9050919050565b600061248e82612435565b9050919050565b60006124a082612455565b91507fffffffffffffffffffffffffffffffffffffffffffffffffffffffffffffffff8214156124d3576124d2612519565b5b600182019050919050565b6000819050919050565b60006124f382612455565b91506124fe83612455565b92508261250e5761250d612548565b5b828206905092915050565b7f4e487b7100000000000000000000000000000000000000000000000000000000600052601160045260246000fd5b7f4e487b7100000000000000000000000000000000000000000000000000000000600052601260045260246000fd5b61258081612405565b811461258b57600080fd5b50565b61259781612455565b81146125a257600080fd5b5056fea2646970667358221220225eaf86f36cb2658a5e4f603931d77871beccbb86a637335a29c4ee136869df64736f6c63430008000033",
  "immutableReferences": {},
  "source": "// SPDX-License-Identifier: MIT\r\npragma solidity ^0.8.0;\r\n\r\n//Import von Ownable.sol zur Sicherheit, Owner eines Ownable Contract ist\r\n//der Deployer des Contracts. transferOwnverhip lsst die Ownership an den\r\n//neuen Host des Spieles bertragen. \r\nimport \"./Ownable.sol\";\r\n\r\n//Base Cotract\r\ncontract Game is Ownable {\r\n    \r\n    //Struktur der Spieler definieren\r\n    struct Player {\r\n        uint number;\r\n        bool hasPlayed;\r\n        bool hasWithdrawn;\r\n        address payable addr;\r\n    }\r\n\r\n    //Liste der Spieler (in dem Proxy Spiel)\r\n    Player[] public players;\r\n    uint public winningNumber;\r\n    bool public hasWinner;\r\n    uint private entryFee;\r\n    uint public prizePool;\r\n    uint private serviceFee;\r\n    \r\n    //Events - Selbsterklrend\r\n    event PlayerJoined(address player, uint number);\r\n    event GameEnded(uint winningNumber, uint prizePool);\r\n    event WinnerSelected(address winner, uint prize);\r\n    event PlayerWithdrawn(address player, uint amount);\r\n    \r\n    /*constructor(uint _entryFee, uint _serviceFee) {\r\n        entryFee = _entryFee;\r\n        serviceFee = _serviceFee;\r\n    }*/\r\n\r\n    //prfen, ob init Methode einmal ausgefhrt wurde\r\n    function init(uint _entryFee) public {\r\n        entryFee = _entryFee;\r\n    }\r\n    \r\n    function play(uint number, uint value) public payable {\r\n        require(number >= 0 && number <= 1000, \"Number must be between 0 and 1000.\");\r\n        require(players.length < 3, \"Maximum number of players reached.\");\r\n        require(!hasWinner, \"Game is already over.\");\r\n        value = value;\r\n        /*require(msg.value >= entryFee, \"Entry fee not paid.\");*/\r\n        /*for(uint i=0; i<players.length; i++) {\r\n            require(players[i].number != number, \"Number already chosen.\");\r\n        }*/\r\n        players.push(Player(number, true, false, payable(msg.sender)));\r\n        prizePool += value /*msg.value*/;\r\n        emit PlayerJoined(msg.sender, number);\r\n        /*if(players.length == 3) {\r\n            startGame();\r\n        }*/\r\n    }\r\n    \r\n    function endGame() public /*hier eigentlich private*/ {\r\n        uint sum = players[0].number + players[1].number + players[2].number;\r\n        uint average = sum / 3;\r\n        uint twoThirdsAverage = (2 * average) / 3;\r\n        uint closestNumber = 0;\r\n        uint closestDistance = 1000;\r\n        for(uint i=0; i<players.length; i++) {\r\n            uint distance = players[i].number > twoThirdsAverage ? players[i].number - twoThirdsAverage : twoThirdsAverage - players[i].number;\r\n            if(distance < closestDistance) {\r\n                closestNumber = players[i].number;\r\n                closestDistance = distance;\r\n            } else if(distance == closestDistance && players[i].number == closestNumber) {\r\n                hasWinner = true;\r\n                winningNumber = closestNumber;\r\n                emit GameEnded(winningNumber, prizePool);\r\n                selectRandomWinner();\r\n                return;\r\n            }\r\n        }\r\n        for(uint i=0; i<players.length; i++) {\r\n            if(players[i].number == closestNumber) {\r\n                hasWinner = true;\r\n                winningNumber = closestNumber;\r\n                emit GameEnded(winningNumber, prizePool);\r\n                selectRandomWinner();\r\n                return;\r\n            }\r\n        }\r\n    }\r\n    \r\n    function getRandomNumber(uint max) private view returns (uint) {\r\n        return uint(keccak256(abi.encodePacked(block.timestamp, block.difficulty, players.length))) % max;\r\n    }\r\n    \r\n    function selectRandomWinner() private {\r\n        uint count = 0;\r\n        for(uint i=0; i<players.length; i++) {\r\n            if(players[i].number == winningNumber) {\r\n                count++;\r\n            }\r\n        }       \r\n        if(count == 1) {\r\n            address payable winner;\r\n            for (uint i = 0; i < players.length; i++) {\r\n                if (players[i].number == winningNumber) {\r\n                    winner = payable(players[i].addr);\r\n                    winner.transfer(prizePool);\r\n                    emit WinnerSelected(players[i].addr, prizePool);\r\n                }\r\n            }\r\n                payable(owner()).transfer(serviceFee);\r\n            } else {\r\n                uint randomIndex = getRandomNumber(count);\r\n                uint currentIndex = 0;\r\n                for (uint i = 0; i < players.length; i++) {\r\n                    if (players[i].number == winningNumber) {\r\n                        if (currentIndex == randomIndex) {\r\n                            address payable winner = payable(players[i].addr);\r\n                            winner.transfer(prizePool);\r\n                            emit WinnerSelected(players[i].addr, prizePool);\r\n                            break;\r\n                        } else {\r\n                            currentIndex++;\r\n                        }\r\n                    }\r\n                }\r\n                payable(owner()).transfer(serviceFee);\r\n            }\r\n    }\r\n\r\n    function withdraw() public {\r\n        for(uint i=0; i<players.length; i++) {\r\n            if(players[i].hasPlayed && !players[i].hasWithdrawn && players[i].addr != msg.sender) {\r\n                players[i].hasPlayed = false;\r\n                players[i].hasWithdrawn = true;\r\n                payable(players[i].addr).transfer(entryFee);\r\n                emit PlayerWithdrawn(players[i].addr, entryFee);\r\n            }\r\n        }\r\n        for(uint i=0; i<players.length; i++) {\r\n            if(players[i].hasPlayed && !players[i].hasWithdrawn && players[i].addr == msg.sender) {\r\n                players[i].hasPlayed = false;\r\n                players[i].hasWithdrawn = true;\r\n                payable(msg.sender).transfer(entryFee + (prizePool / 2));\r\n                emit PlayerWithdrawn(msg.sender, entryFee + (prizePool / 2));\r\n                prizePool = prizePool / 2;\r\n            }\r\n        }\r\n    }\r\n\r\n    function cancelGame() public onlyOwner {\r\n        for(uint i=0; i<players.length; i++) {\r\n            if(players[i].hasPlayed && !players[i].hasWithdrawn) {\r\n                players[i].hasPlayed = false;\r\n                players[i].hasWithdrawn = true;\r\n                payable(players[i].addr).transfer(entryFee);\r\n                emit PlayerWithdrawn(players[i].addr, entryFee);\r\n            }\r\n        }\r\n    }\r\n\r\n    function getPlayers() public view returns (Player[] memory) {\r\n        return players;\r\n    }\r\n\r\n    function getPrizePool() public view returns (uint) {\r\n        return prizePool;\r\n    }\r\n\r\n    function getServiceFee() public view returns (uint) {\r\n        return serviceFee;\r\n    }\r\n}\r\n\r\n\r\n",
  "sourcePath": "C:\\Users\\elebe\\OneDrive\\Desktop\\HSMW-Stoff\\2_Semester\\Blockchain_3\\spiel-app\\spiel\\contracts\\Game.sol",
  "compiler": {
    "name": "solc",
    "version": "0.8.0+commit.c7dfd78e.Emscripten.clang"
  },
  "schemaVersion": "3.4.13",
  "updatedAt": "2023-04-18T08:52:01.596Z",
  "networkType": "ethereum",
  "devdoc": {
    "kind": "dev",
    "methods": {
      "owner()": {
        "details": "Returns the address of the current owner."
      },
      "renounceOwnership()": {
        "details": "Leaves the contract without owner. It will not be possible to call `onlyOwner` functions. Can only be called by the current owner. NOTE: Renouncing ownership will leave the contract without an owner, thereby disabling any functionality that is only available to the owner."
      },
      "transferOwnership(address)": {
        "details": "Transfers ownership of the contract to a new account (`newOwner`). Can only be called by the current owner."
      }
    },
    "version": 1
  },
  "userdoc": {
    "kind": "user",
    "methods": {},
    "version": 1
  }
}